:020000040800F2
:1000000048070020A9010008E7320008092D000870
:10001000E5320008B91400083F3400080000000071
:10002000000000000000000000000000EB320008AB
:10003000BB14000800000000E9320008ED3200089F
:10004000C3010008C3010008C3010008C301000880
:10005000C3010008C3010008C3010008C301000870
:10006000C3010008C3010008C3010008C301000860
:10007000C3010008C3010008C3010008C301000850
:10008000C3010008C3010008D9130008C301000818
:10009000C3010008C3010008C3010008C301000830
:1000A000C3010008C3010008C3010008C301000820
:1000B000C3010008C3010008C3010008C301000810
:1000C000C3010008C3010008C3010008C301000800
:1000D000C3010008C3010008C3010008C3010008F0
:1000E000BD140008C3010008C301000800F002F8B5
:1000F00000F04AF80AA090E8000C82448344AAF178
:100100000107DA4501D100F03FF8AFF2090EBAE875
:100110000F0013F0010F18BFFB1A43F0010318473B
:100120003C3A00005C3A0000103A24BF78C878C11D
:10013000FAD8520724BF30C830C144BF04680C60ED
:10014000704700000023002400250026103A28BF35
:1001500078C1FBD8520728BF30C148BF0B60704739
:10016000662903F09984642900F07A8000207047A2
:100170001FB500F005FC04000020002103F00CFA7C
:10018000E0601FBD10B510BD00F0F6FC1146FFF792
:10019000EFFF03F081F900F014FD03B4FFF7F2FF65
:1001A00003BC00F057FD000009488047094800479C
:1001B000FEE7FEE7FEE7FEE7FEE7FEE7FEE7FEE717
:1001C000FEE7FEE704480549054A064B7047000074
:1001D00065330008ED0000084801002048070020B2
:1001E00048030020480300200FB41CB5074B06AAA3
:1001F0007B4469460090059800F0A9FB0020694601
:1002000000F0B8FB1CBC5DF814FB00008107000087
:1002100070B5044685690068C10601D5302600E046
:100220002026C00707D070BDD4E901213046904791
:10023000206A401C20626D1EF6D570BD70B5044664
:1002400085690078C00707D170BDD4E9012120205D
:100250009047206A401C20626D1EF6D570BD0000DC
:100260002DE9F0410646002410687529314616A58F
:1002700010D0AFF30080002802DA404213A507E057
:1002800031688A0701D512A502E0490704D511A5F6
:10029000012401E0AFF3008000210A2206F12407C7
:1002A00009E0B0FBF2FCB0FBF2F302FB1C003030C3
:1002B00078541846491C0028F3D123462A46304674
:1002C000BDE8F04100F0D8B8000000002D000000AB
:1002D0002B000000200000002DE9F0474FF0000A3D
:1002E00089460446C0F820A02046E16888470028D7
:1002F00076D0252806D0D4E901219047206A401CF9
:100300002062F1E7E168204600258847C4F81CA078
:1003100006460027C4F818A02A2E09D0304603F05C
:10032000B3F838B304EB8708303EC8F8186019E01A
:1003300059F8041B204604EB87029161E168884765
:10034000012F064618D1E069002820DA25F02005A3
:100350001DE0D8F8180000EB800006EB40003038B4
:10036000C8F818002046E1688847064603F08CF874
:100370000028EED1012F0AD02E2E08D12046E168A8
:1003800088477F1C0646022F45F02005C4DBA06984
:10039000002803DA404245F00105A061E80701D0DA
:1003A00025F01005B6B1A6F14100192802D8203673
:1003B00045F400654A463146204625604D46FFF724
:1003C000CFFE58B1012806D0ED1D25F0070000F141
:1003D000080989E704E005F1040985E730468AE762
:1003E000206ABDE8F08710B5431C02E010F8011B3D
:1003F00071B18107FAD14FF0013202C88C1A8C43D7
:1004000014EAC211F9D0C01A0A0603D0C01E10BDEA
:10041000C01A10BD0A0401D0801E10BD0902FCD014
:10042000401E10BD4FF0000200B51346944696469C
:10043000203922BFA0E80C50A0E80C50B1F12001F7
:10044000BFF4F7AF090728BFA0E80C5048BF0CC0A5
:100450005DF804EB890028BF40F8042B08BF704703
:1004600048BF20F8022B11F0804F18BF00F8012B75
:1004700070477047704770472DE9F0470D46994621
:100480009246044600F124080168880604D5E06914
:1004900021F01001216000E00120A84201DD471B8E
:1004A00000E00027A1697A1902EB0900081AA0618F
:1004B0002078C00602D42046FFF7AAFE002608E0F6
:1004C000D4E901211AF806009047206A401C761CE6
:1004D00020624E45F4DB2078C0060AD52046FFF79F
:1004E00097FE06E0D4E9012130209047206A401CA5
:1004F0002062381EA7F10107F4DC07E0D4E90121EE
:1005000018F805009047206A401C2062281EA5F1BB
:100510000105F3DC2046FFF791FE2078000602D5A6
:100520000220BDE8F0870120FBE770472DE9FF4F6F
:100530000C461E464FF0FF378BB0D2E90001DDF8C4
:1005400060800A908A46C1F30A5505B93D460021EC
:1005500008464FF00000BAF1000F00F4400005DA41
:1005600000EB80004FF4400101EA50004FEA90593F
:10057000B9F1010F00DDB9460A9850EA4A000ED0E1
:1005800044F61050A5F2FF3545432F14B8F1000F83
:100590001ED07542291E1EDDC9F100021CE0B8F113
:1005A000010F4FF0000001D0302103E0F24305E0DD
:1005B0002154401CB042FBDB304600220021215474
:1005C0000B99C1F80880C1E900200FB0BDE8F08F99
:1005D000BD1B6D1CDEE74A4600DA694206A800F042
:1005E00059FA06AB93E8070003AB83E807005046CF
:1005F0000A9900F036FB8DE80700A0F500501F387F
:1006000000900398002D09DD42F21F014A4608447C
:1006100003A90390684600F095FD08E0A0F500509E
:100620004A461F3803A90390684600F09FFD8DE8F5
:1006300007000004000C03D04FF0FF30410800E039
:100640001046B8F1000F03D00022009215461EE0BC
:10065000751E05D400F098F9303262556D1EF9D53B
:10066000B3460122084302D000227F1C04E0207818
:10067000302801D100227F1E002A099786D01DE074
:10068000112D07DA00F080F9303262556D1C50EA06
:100690000102F5D1084302D00098C8B10EE0002154
:1006A000681E05E0235C625C63542254401E491CB2
:1006B0008142F7DBAB46A81B401E0990002004F8DE
:1006C0000B000B98099AC0F80880C0E9002B7CE762
:1006D00011264FF0000859E72DE9F04F88460446EF
:1006E000D21D22F0070191B0D1E90001CDE90A0144
:1006F00002F0A6FE02460B98C00F01D02D2007E0A5
:100700002068810701D52B2002E0202101EAC000EA
:10071000032A099001D0072A05DB034641462046FB
:1007200000F078F90BE12078800601D5E06900E05F
:100730000620B8F1650F814606D0B8F1660F18D0D3
:10074000B8F1670F70D131E00020B9F1110F0090BE
:1007500001DB112301E009F101030AAA01A90CA898
:10076000FFF7E4FEDDE90C70002609F10105834680
:1007700047E001204B4600904FF000470AAA01A92C
:100780000CA8FFF7D3FEDDE90DB00C995D460026FD
:1007900010B909F101000D18B9EB050003D4C0F13F
:1007A000FF3609F10105A5EB09002BE0B9F1010FB6
:1007B00001DA4FF001090020B9F1110F009048460D
:1007C00001DD112300E003460AAA01A90CA8FFF7E6
:1007D000ADFEDDE90C704D4600268346207800070B
:1007E0000AD4AB4500DA5D4601A8012D04DD4119AC
:1007F00011F8011C302907D04F4502DA17F1040F18
:1008000004DA012082460FE06D1EEEE7002F02DCC5
:10081000ED1B3E4403E0781CA84200DD7D1CB81BA4
:1008200000F1010A4FF000472078000703D4AA45E1
:1008300001DB4FF0FF3A0021B7F1004F0DF1430803
:100840008DF8431024D002202B23002F01DA7F42A1
:100850002D230A21021EA0F1010000DC5FB197FBED
:10086000F1FC97FBF1F201FB1C7C17460CF1300CFC
:1008700008F801CDEEE7A8F1010003702188090511
:1008800001D5452100E06521A0F1010800F8011C17
:1008900009980FA9A1EB0807FF1D00B1012041191C
:1008A00001EBEA70A1693844081A401EA061207863
:1008B000C00602D42046FFF7ABFC099828B1D4E962
:1008C00001219047206A401C20622078C00622D572
:1008D0002046FFF79DFC1EE0002E04DBB34502DD41
:1008E00001A8805D00E03020D4E901219047206A12
:1008F000401C2062761CAAF101005FEA000A0AD1BE
:1009000000F03EF8C0680168405CD4E901219047DE
:10091000206A401C2062281EA5F10105DCDC07E0EE
:10092000D4E9012118F8010B9047206A401C20628D
:10093000381EA7F10107F3DC2046FFF77FFC0320F8
:1009400011B043E601694A1C02610878704700B59E
:100950008FB0CDE901310021059105497944CDE9F8
:10096000031011466846FFF7B7FC0FB000BD00004A
:10097000E5FFFFFF0A6802F8010B0A6070470000FC
:10098000004870470801002030B5B0F10A024FEA74
:10099000900E71F100034EEA817EB0EB0E0061EB28
:1009A00091014FEA101E4EEA017E10EB0E0041EB62
:1009B00011114FEA102E4EEA016E10EB0E0041EBC2
:1009C00011214FEA104E4EEA014E10EB0E0041EBA2
:1009D0001141401841F100014FEAD00040EA417056
:1009E0004FEAD10110EB80054FEA810444EA90748C
:1009F00044EB01046D1944EB0404521BA3414FF076
:100A0000000348BF0A3200D530BD401C41F100014F
:100A100030BD00002DE9F0411F4604460326016861
:100A2000072A01F4006004DB08B116A505E016A54D
:100A300003E008B115A500E015A521F01000206025
:100A4000A069C01EA0610FB1401EA0612046FFF743
:100A5000DFFB4FB1D4E9012138469047206A401CA2
:100A60002062C01C206206E0206AFAE7D4E9012176
:100A700015F8010B9047761EF8D22046FFF7DEFBF3
:100A8000BDE8F0814E414E006E616E00494E460059
:100A9000696E66002DE9F047814616468AB03348F4
:100AA00078440DC88DE80D0030487844801C03ACB4
:100AB0000DC884E80D0041F69B300844372190FBB7
:100AC000F1F290FBF1F5A5F1800501FB12041B3C4E
:100AD00002D56442012000E00020DFF890A08046AB
:100AE0000027FA44AAF1BE0A0DE0E00709D0324619
:100AF000684607EB47010AEB810100F037FB8DE800
:100B0000070064107F1C002CEFD1184F7F44AC3FCE
:100B100018E0E80714D007EB04100DF1180A90E86C
:100B20000E008AE80E00C068F04201D198190890C2
:100B3000324606A903A800F019FB03AB83E80700BF
:100B40006D10641C002DE4D132466946B8F1000FE7
:100B500003A802D000F0F6FA01E000F007FBC9E9B3
:100B60000001C9F808200AB0BDE8F087A0300000F5
:100B700000487047E80000207546FFF7F9FFAE46D1
:100B800005006946534620F00700854618B020B599
:100B9000FFF718FBBDE820404FF000064FF00007BC
:100BA0004FF000084FF0000B21F00701AC46ACE815
:100BB000C009ACE8C009ACE8C009ACE8C0098D4682
:100BC000704710B50446AFF300802046BDE81040E2
:100BD000FFF7E3BA4FF0013C50F8042B51F8043B07
:100BE0009A4221D1A2EB0C03934313EACC1317D101
:100BF00050F8042B51F8043B9A4215D1A2EB0C0398
:100C0000934313EACC130BD150F8042B51F8043B57
:100C10009A4209D1A2EB0C03934313EACC13DBD025
:100C20004FF00000704700BFD01A01BAB1FA81F14D
:100C300001F0180122FA01F0CB40C1F12001DBB232
:100C4000C0B2C01A2CFA01F3D11A914311EAC311B0
:100C5000E6D1704701491820ABBEFEE7260002002E
:100C600070475FEA400C08BF91F0000F4FEA8C23F9
:100C70004FEAC12243EA51514FEA1C5018BF00F518
:100C8000F0404FEA300018BF41F000415FEA6C5C71
:100C900000F02980BCF1FF3F08BF40F08040704762
:100CA000130C06BF12044FF0100C4FF0000C130E83
:100CB00004BF12020CF1080C130F04BF12010CF157
:100CC000040C930F04BF92000CF1020CD30F04BF6D
:100CD00052000CF1010C11464FF00002A0F11F0070
:100CE000A0EB0C00704711F0004F08BF704731F0C7
:100CF00000413FF4D5AF0B0C06BF09044FF0100CB8
:100D00004FF0000C0B0E04BF09020CF1080C0B0F86
:100D100004BF09010CF1040C8B0F04BF89000CF116
:100D2000020CCB0F04BF49000CF1010CCCF12003E5
:100D3000A0EB0C0022FA03F302FA0CF241EA0301E1
:100D400000F10100704720F07F4C80EA030023F09F
:100D50007F47ACEB070303F57C5300F0004003F141
:100D6000FF032DE980494FEA154B09B44FEA1443BC
:100D700025EA0B4E24EA03480FF2042606EB13275C
:100D800049083E785FEA320203FB0667C7F50007B1
:100D900007FB06F64FEA54374FEAD64606F102063D
:100DA00007FB066CCCF1005C4FEA1C472CEA074CB1
:100DB00007FB06F40CFB06F504EB15464FEA961606
:100DC00034BF00204FF000404FEAD13706FB07FC4C
:100DD0004FEA1C4C0CFB0BF7D21B03FB0CF761EB2F
:100DE00007010CFB0EF7B0EB074072EB17420CFB50
:100DF00008F734BFA2EB0742B2EB074261EB1741A1
:100E00004FEA0C444FEA910706FB07FC4FEA1C4CE3
:100E10000CFB0BF7B0EBC74072EB573203FB0CF740
:100E200034BFA2EBC742B2EBC74261EB57310CFBB8
:100E30000EF7B0EBC70072EB57720CFB08F734BF2C
:100E4000A2EBC702B2EBC70261EB5771039F4FEAF7
:100E5000816141EA921104EBCC044FEAD1374FEAA9
:100E6000826206FB07FC42EA90124FEA80604FEA7A
:100E70001C4C0CFB0BF7D21B03FB0CF761EB0701BF
:100E80000CFB0EF7B0EB074072EB17420CFB08F7B8
:100E900034BFA2EB0742B2EB074261EB17414FEAC6
:100EA0008C554FEA910704EB9C2406FB07FC4FEAA4
:100EB0001C4C0CFB0BF7B0EBC74072EB573203FB3B
:100EC0000CF734BFA2EBC742B2EBC74261EB57311C
:100ED0000CFB0EF7B0EBC70072EB57720CFB08F778
:100EE00034BFA2EBC702B2EBC70261EB577115EB3F
:100EF0004C254FEA816141EA92114FEA82624FEA42
:100F0000D13742EA901206FB07FC44F100044FEA95
:100F100080604FEA1C4C0CFB0BF7D21B03FB0CF759
:100F200061EB07010CFB0EF7B0EB074072EB1742C9
:100F30000CFB08F734BFA2EB0742B2EB074261EBB0
:100F4000174115EB1C154FEA813141EA92414FEAF6
:100F5000823242EA90424FEA80304FEA0C7644F106
:100F6000000448EA03434EEA0B484FF0000EB2EB90
:100F7000080C71EB030724BF624639464EEB0E0E98
:100F80004FF0000B0018524149414BEB0B0BB2EBF9
:100F9000080C71EB03077BF1000B24BF6246394656
:100FA0004EEB0E0E4FF0000B0018524149414BEB37
:100FB0000B0BB2EB080C71EB03077BF1000B24BFAA
:100FC000624639464EEB0E0E51EA020718BF46F054
:100FD000010616EB0E7655F1000254F1000103D51F
:100FE000BDE88901BDE80088BDE88901BDE8004889
:100FF000B619524141EB0101A3F101037047808012
:101000007F7E7D7C7B7A7978777676757473727162
:1010100071706F6E6E6D6C6C6B6A6A69686867661A
:1010200066656464636362616160605F5F5E5E5DAC
:101030005D5C5C5B5B5A5A59595858575756565520
:1010400055555454535352525251515050504F4F82
:101050004F4E4E4D4D4D4C4C4C4B4B4B4A4A4A49D2
:101060004949484848474747474646464545454415
:101070004444444343434342424242414141002BA2
:1010800026D4770021D01CB54FEA370703B44FF0C0
:1010900010004FF010014FF000000FBCBDE81040F1
:1010A0000BF1010BBBF1010F08BF5FEA170722BF6D
:1010B00012F1010211F101014FF0004143F100036F
:1010C00000F0004043EA00007047F9D35708DAE720
:1010D00046EA064613F1400F4FEA16461FDD13F1AC
:1010E000200FDFBF16430A46002120335B42C8D0E1
:1010F000C3F1200746EA064602FA07F74FEA16460A
:1011000046EA0706C3F1200722FA03F201FA07F7BD
:1011100021FA03F14FF0000342EA0702B1E746EA81
:10112000020646EA06464FEA164646EA0106BCBFF4
:1011300046EA0646360C4FF000034FF000024FF02F
:1011400000019EE72DE9C048934630B491E838008D
:1011500007C831EA400C48BF34EA430C03D5FFF717
:10116000F2FDFFF78CFFF0BCBDE800882DE9C04818
:10117000934630B491E8380007C810F0804F08BF9C
:1011800013F0804F03D100F005F8FFF778FFF0BCB3
:10119000BDE8008820F07F4780EA030023F07F4C01
:1011A00007EB0C03A3F57C5300F00040A3F1FE0312
:1011B00092F0000F00F0B38095F0000F00F0778000
:1011C0002DE901494FEA11404FEA144621EA00484F
:1011D00000FB06FC24EA064708FB06F607FB08F8B6
:1011E00000FB07F718EB06484CEB164C4FEA124B86
:1011F00018EB07484FEA15464CEB174022EA0B4E16
:101200000BFB06FC25EA06470EFB06F607FB0EFE67
:101210000BFB07F71EEB064E4CEB164C4FF000068F
:101220001EEB074E4CEB174B18EB0B0840F1000080
:1012300018EB0E0B58EB000840F100008F1A4FF02E
:1012400000013CBFC943661B14BFB5EB040C002171
:101250003CBFC943F61B4FEA17444EEA8E0E27EAFD
:1012600004454FEA1C4704FB07622CEA074C05FBC8
:1012700007F70CFB05F604FB0CFC16EB074642EBEC
:10128000174216EB0C4642EB1C421BEB060658EBD2
:101290000202414146EA9E0601D5BDE80189B61920
:1012A000524141EB0101A3F10103BDE801894FEA7D
:1012B00014454FEA114724EA054621EA074C05FB8D
:1012C00007F406FB07F70CFB06F105FB0CFC11EB22
:1012D000074144EB17444FEA124711EB0C4144EB32
:1012E0001C4422EA074C05FB07F206FB07F70CFB40
:1012F00006F605FB0CFC16EB074642EB174216EB15
:101300000C4642EB1C456A1854F1000148BF704777
:10131000B619524141EB0101A3F10103704795F069
:10132000000F37D04FEA11424FEA144721EA024634
:1013300024EA074C02FB07F106FB07F70CFB06F457
:1013400002FB0CFC14EB074441EB17414FEA154735
:1013500014EB0C4441EB1C4125EA074C02FB07F55A
:1013600006FB07F70CFB06F602FB0CFC16EB074628
:1013700045EB174516EB0C4645EB1C42121951F193
:10138000000148BF7047B619524141EB0101A3F17A
:10139000010370474FEA14454FEA114724EA054616
:1013A00021EA074C05FB07F106FB07F70CFB06F2E9
:1013B0004FF0000605FB0CFC12EB074241EB174116
:1013C00012EB0C4251EB1C4148BF7047921841EBA5
:1013D0000101A3F101037047014800F0C2BB000006
:1013E0001C00002070B5044600688168C943C90725
:1013F00017D1816821F00101816000F075FE05467A
:101400000AE000BF00F070FE401B022804D92068EB
:101410008068C043C00706D020688068C043C0070A
:10142000F0D0002070BDA06A40F01000A062E06A19
:1014300040F00100E062012070BD0000F8B5002618
:101440000446009600688168C943C9072DD08168A9
:1014500041F001018160164816490068B0FBF1F0C7
:1014600000E0401E00900028FBD100F03DFE054644
:1014700016E000BF00F038FE401B022810D920689B
:101480008068C043C0070BD0A06A40F01000A06283
:10149000E06A40F00100E06284F824600120F8BDB9
:1014A00020688068C043C007E4D10020F8BD000078
:1014B0001800002040420F00FEE770474FF4004044
:1014C00000F010BD002141F28372904202D9821ACD
:1014D000112A01D86421ADE2A0F5B852943A112A3C
:1014E00001D86321A6E2A0F5B852A53A112A01D885
:1014F00062219FE2A0F5B852B63A112A01D86121C3
:1015000098E2A0F5B852C73A112A01D8602191E2B9
:10151000A0F5B852D83A112A01D85F218AE2A0F585
:10152000B852E93A102A01D85E2183E2A0F5B852F8
:10153000F93A112A01D85D217CE2A0F5C0520A3A9D
:10154000102A01D85C2175E2A0F5C0521A3A102A7F
:1015500001D85B216EE2A0F5C0522A3A102A01D8C8
:101560005A2167E2A0F5C0523A3A0F2A01D8592110
:1015700060E2A0F5C052493A102A01D8582159E238
:10158000A0F5C052593A0F2A01D8572152E2A0F5CE
:10159000C052683A102A01D856214BE2A0F5C05239
:1015A000783A0F2A01D8552144E2A0F5C052873A73
:1015B0000F2A01D854213DE2A0F5C052963A0F2AD5
:1015C00001D8532136E2A0F5C052A53A0E2A01D81F
:1015D00052212FE2A0F5C052B33A0F2A01D851216F
:1015E00028E2A0F5C052C23A0E2A01D8502121E2C9
:1015F000A0F5C052D03A0F2A01D84F211AE2A0F527
:10160000C052DF3A0E2A01D84E2113E2A0F5C05293
:10161000ED3A0E2A01D84D210CE2A0F5C052FB3A5A
:101620000E2A01D84C2105E2A0F5C852093A0E2A2B
:1016300001D84B21FEE1A0F5C852173A0E2A01D875
:101640004A21F7E1A0F5C852253A0D2A01D84921CF
:10165000F0E1A0F5C852323A0E2A01D84821E9E15A
:10166000A0F5CA520D2A01D84721E3E1A0F5C852DE
:101670004D3A0E2A01D84621DCE1A0F5C8525B3A6A
:101680000D2A01D84521D5E1A0F5C852683A0D2AA6
:1016900001D84421CEE1A0F5C852753A0D2A01D8EF
:1016A0004321C7E1A0F5C852823A0D2A01D8422150
:1016B000C0E1A0F5C8528F3A0D2A01D84121B9E105
:1016C000A0F5C8529C3A0C2A01D84021B2E1A0F5FD
:1016D000C852A83A0D2A01D83F21ABE1A0F5C85263
:1016E000B53A0D2A01D83E21A4E1A0F5C852C23A6C
:1016F0000C2A01D83D219DE1A0F5C852CE3A0D2A11
:1017000001D83C2196E1A0F5C852DB3A0C2A01D859
:101710003B218FE1A0F5C852E73A0C2A01D83A21C3
:1017200088E1A0F5C852F33A0D2A01D8392181E1A8
:10173000A0F5D0520C2A01D838217BE1A0F5D05277
:101740000C3A0C2A01D8372174E1A0F5D052183A8E
:101750000C2A01D836216DE1A0F5D052243A0C2A8A
:1017600001D8352166E1A0F5D052303A0C2A01D8D3
:1017700034215FE1A0F5D0523C3A0C2A01D8332144
:1017800058E1A0F5D052483A0C2A01D8322151E153
:10179000A0F5D052543A0C2A01D831214AE1A0F5E3
:1017A000D3520C2A01D8302144E1A0F5D0526C3A32
:1017B0000C2A01D82F213DE1A0F5D052783A0C2A0D
:1017C00001D82E2136E1A0F5D052843A0C2A01D856
:1017D0002D212FE1A0F5D052903A0C2A01D82C21CE
:1017E00028E1A0F5D0529C3A0C2A01D82B2121E106
:1017F000A0F5D052A83A0C2A01D82A211AE1A0F566
:10180000D052B43A0C2A01D8292113E1A0F5D652BE
:101810000C2A01D828210DE1A0F5D052CC3A0C2A8F
:1018200001D8272106E1A0F5D052D83A0C2A01D8D8
:101830002621FFE0A0F5D052E43A0C2A01D8252158
:10184000F8E0A0F5D052F03A0C2A01D82421F1E0BA
:10185000A0F5D052FC3A0C2A01D82321EAE0A0F5E9
:10186000D852083A0C2A01D82221E3E0A0F5D85238
:10187000143A0D2A01D82121DCE06FF4D952024438
:101880000C2A01D82021D5E0A0F5D8522D3A0C2AF7
:1018900001D81F21CEE0A0F5D852393A0D2A01D83F
:1018A0001E21C7E0A0F5D852463A0D2A01D81D21C5
:1018B000C0E0A0F5D852533A0C2A01D81C21B9E057
:1018C000A0F5D8525F3A0D2A01D81B21B2E0A0F54D
:1018D000D8526C3A0D2A01D81A21ABE0A0F5D852A3
:1018E000793A0D2A01D81921A4E0A0F5D852863AF8
:1018F0000D2A01D818219DE0A0F5D852933A0D2A5F
:1019000001D8172196E0A0F5DD520E2A01D8162144
:1019100090E0A0F5D852AE3A0D2A01D8152189E001
:10192000A0F5D852BB3A0E2A01D8142182E0A0F5C6
:10193000D852C93A0E2A01D813217BE0A0F5D8521B
:10194000D73A0D2A01D8122174E0A0F5D852E43A12
:101950000F2A01D811216DE0A0F5D852F33A0E2AD2
:1019600001D8102166E06FF4E05202440E2A01D83B
:101970000F215FE0A0F5E0520F3A0C2A01D80E21AA
:1019800058E0A0F5E0521B3A122A01D80D2151E08F
:10199000A0F5E0522D3A0F2A01D80C214AE0A0F51B
:1019A000E0523C3A0F2A01D80B2143E0A0F5E05267
:1019B0004B3A102A01D80A213CE0A0F5E0525B3AEC
:1019C0000F2A01D8092135E0A0F5E0526A3A102A21
:1019D00001D808212EE0A0F5E0527A3A112A01D868
:1019E000072127E0A0F5E0528B3A102A01D8062102
:1019F00020E0A0F5E0529B3A112A01D8052119E018
:101A0000A0F5E052AC3A112A01D8042112E0A0F569
:101A1000E052BD3A112A01D803210BE0A0F5E052B3
:101A2000CE3A122A01D8022104E0A0F5E75012288C
:101A300000D801210846704770470000F8B500241F
:101A4000009490F824202546012A12D0012280F823
:101A500024204A681F23072A0DD20668776B521E7E
:101A600002EB820293409F430B6893401F437763CE
:101A700019E00220F8BD06680D2A0AD2376BD21F82
:101A800002EB820293409F430B6893401F433763EE
:101A900009E0F76A0D3A02EB820293409F430B681C
:101AA00093401F43F7620A68072306680A2A0AD38D
:101AB000F7680A3A02EB420293409F438B689340D7
:101AC0001F43F76008E0376902EB420293409F43EF
:101AD0008B6893401F4337610A68102A01D0112A8E
:101AE00020D1124B02689A4217D193681B0219D475
:101AF000936843F4000393600968102912D10C49DC
:101B00000C4A0968B1FBF2F101EB8101490000E0E8
:101B1000491E00910029FBD104E0816A41F02001B7
:101B20008162012480F824502046F8BD0024014041
:101B30001800002040420F0010B5064900680968EF
:101B4000884206D1044C00202080024800F006F8AC
:101B5000208010BD1C000020000000200068C06C28
:101B6000704770B50446006806684568A90625D523
:101B7000B10723D5A16AC90603D4A16A41F4007153
:101B8000A1628168C1F34241072910D1217B71B95B
:101B9000416821F020014160A06A20F48070A062B9
:101BA000A06AC00403D4A06A40F00100A0622046ED
:101BB000FFF7C2FF21686FF01200086028062ED5DB
:101BC00070072CD5A06AC00603D4A06A40F4005068
:101BD000A06220688168C1F30231072909D04168F9
:101BE000490515D48168C1F34241072910D1217BF1
:101BF00071B9416821F080014160A06A20F48050F1
:101C0000A062A06AC00503D4A06A40F00100A062EF
:101C10002046FFF711FF21686FF00C00086068068E
:101C20000CD5F0070AD0A06A40F48030A0622046AC
:101C300000F094F821686FF00100086070BD0000AA
:101C40002DE9F0414FF0000704003D467ED0A06A28
:101C5000002628B9E66284F82460204600F080F867
:101C60002046FFF7BFFBA16A01F01001014304D039
:101C7000A06A40F01000A06268E0A16A21F48851D7
:101C800041F00201A1626268E169237B0A4347EAED
:101C900043010A43A1684FF48077B94208D0012973
:101CA00006D0002194F814C0BCF1010F02D00AE064
:101CB0003946F7E7F3B1A36A43F02003A362E36A6E
:101CC00043F00103E3622368D3F804C02CF4694CA9
:101CD0004CEA010CC3F804C023689968DFF870C0AF
:101CE00001EA0C0111439960A168B9420BD00129A6
:101CF00009D00CE0DFF85CC0A3690CEB43330B4365
:101D000043F40061DFE7218A0D05A5F58015216800
:101D1000CB6A23F470032B43CB62216889680E4B96
:101D20001940914208D1E662A16A21F0020141F016
:101D30000101A162BDE8F081A06A20F0020040F03C
:101D40001000A062E06A40F00100E0620120F1E7CB
:101D5000FDF7E1FF00E0FFFFFE0E1FFF70470000F0
:101D600000B585B0002100910191029103910068B6
:101D70001249884220D11248816941F40071816181
:101D8000816901F400710491816941F0040181616C
:101D90008069694600F0040004900120009003204F
:101DA0000190084800F0AAF800220121122000F05A
:101DB00087FB122000F076FB05B000BD0024014037
:101DC000001002400008014070B5044690F824005D
:101DD00001280DD0012084F824002046FFF72EFBB7
:101DE00002004FF0000005D084F82400104670BDBA
:101DF000022070BDA16A40F60163994341F48071ED
:101E0000A162224D23682249AB4218D10E6816F414
:101E1000702F14D0A66A46F48016A6620E68760566
:101E200005D5A66A26F4005646F48056A662A66A30
:101E3000F6040AD5E66A26F00606E66206E0A66A19
:101E400026F48016A6625E68E9E7E06284F8240062
:101E50006FF0020018602068436843F0200343607D
:101E600020688368C3F34243072B05D1A84208D1F9
:101E7000096811F4702F04D0816841F480118160E9
:101E8000B4E7816841F4A001F9E7000000280140AF
:101E90000424014070B5044600F026F90546601C94
:101EA00002D004480078044400F01EF9401BA04210
:101EB000FAD370BD0C00002006480068406A06494D
:101EC000064B0A68821AB3FBF2F2054B1A600860EF
:101ED00070470000A00000200800002040420F00D2
:101EE00004000020044910B50A68024202D00860CC
:101EF000FFF7E2FF10BD0000140401402DE9F84F88
:101F0000DFF8B8910024A9F1040B23460F2709F14B
:101F1000040AABF1040EC9E00125A5402A40AA42FB
:101F20007DD1674ED1F804C0ACEB0608B44532D081
:101F300014DCBCF1030F3AD009DCBCF1000F2AD04D
:101F4000BCF1010F1CD0BCF1020F31D11DE0BCF17E
:101F5000110F17D0BCF1120F2AD119E0B8F5881F64
:101F600019D006DCB8F5803F15D0B8F5801F1FD119
:101F700011E0B8F5001F0ED0B8F5041F18D10AE023
:101F8000CB6815E0CB681B1D12E0CB6808330FE06F
:101F9000CB680C330CE08B682BB1012B4FF008039E
:101FA00003D0456104E0042302E0056100E0002362
:101FB000FF2A01D8064601E000F104064FEA840535
:101FC00001D9A5F12005D6F8008007FA05FC28EA1A
:101FD0000C0803FA05F548EA0508C6F800804D68C4
:101FE000ED0062D5374DAE6946F00106AE61AD69D0
:101FF00024F0030605F001050095334D06EB050CB2
:10200000DCF80850A607360F07FA06F825EA080597
:10201000DFF8B880404503D14FF0000817E044E0F6
:10202000DFF8AC80404502D14FF001080FE0DFF847
:10203000A480404502D14FF0020808E0DFF8988004
:10204000404502D14FF0030801E04FF0040808FAC0
:1020500006F848EA0508CCF808804D68D9F8006011
:10206000ED024D4601D5164300E096432E604D68C3
:10207000DAF80060AD02554601D5164300E09643FC
:102080002E604D68DBF80060AD035D4601D5164358
:1020900000E096432E604D68DEF80060ED03754663
:1020A00001D5164300E096432E60641C0D682A4655
:1020B000E5407FF431AFBDE8F88F0000080401402F
:1020C0000000111000100240000001400008014013
:1020D000000C014000100140001401400AB10161F0
:1020E00070470904FBE70000014880687047000062
:1020F0000C00002070B5040025D094F83D000025A8
:1021000020B984F83C50204600F04EF9242084F891
:102110003D002068016821F001010160206801682C
:1021200041F4004101602068016821F40041016030
:1021300000F004FB4D4A6168914201D84C4900E02F
:102140004C49884201D2012070BD4B492368B0FB45
:10215000F1F15E6826F03F060E435E6063689342CD
:1021600006D94FF4967359434FF47A73B1FBF3F1E8
:102170002368491C1E6A26F03F06314319626168D4
:10218000914210D84900401EB0FBF1F2521CC2F33C
:102190000B02042A01D2042022E0B0FBF1F0401C23
:1021A000C0F30B001CE0A268F2B301EBC10303EB28
:1021B0000116431EB3FBF6F35B1C43F480431B057F
:1021C00049D092B301EBC10202EB0111401EB0FBFA
:1021D000F1F0401CC0F30B0040F4804040F400409C
:1021E0002168CA694CF6FF739A431043C861D4E969
:1021F000071001432068026822F0C0021143016009
:10220000D4E9030101432068826848F2FF339A430E
:1022100011438160D4E9050108432168CA6822F0AE
:10222000FF021043C86001E00EE016E0206801687C
:1022300041F0010101602564202084F83D00256300
:1022400084F83E50002070BD01EB4106431EB3FBF5
:10225000F6F35B1CB3E70120C2E701EB4101401E2E
:10226000B0FBF1F0401CC0F30B00B7E7A086010003
:1022700080841E0000093D0040420F002DE9F84F08
:102280001F4690468A460446DDF82890FFF72CFF4B
:10229000054694F83D0020287FD1192301224049AA
:1022A0002046009500F0C2FD002876D194F83C004D
:1022B000012872D0012084F83C0020680168C90719
:1022C00003D1016841F0010101602068016821F437
:1022D00000610160212084F83D00102084F83E0058
:1022E00000262664C4F824806785608D20852D48EB
:1022F000E0622B464A465146204600F01DFD90B94B
:10230000206841698069009036E02A4649462046A7
:1023100000F032FE50B1206C042804D1206801681E
:1023200041F4007101600120BDE8F88F606A216806
:1023300000780861606A401C6062618D491E618599
:10234000218D491E89B2218522685369DB435B07D1
:102350000BD451B100781061606A401C6062608DDE
:10236000401E6085208D401E20852A464946204615
:1023700000F030FD0028CED1208D0028C5D154F8C2
:102380003D0B016841F400710160202004F81E0932
:10239000E67766770020C7E7FFE70220C4E7000082
:1023A000020010000000FFFF10B586B00021009170
:1023B00001910291039100680F4988421AD10F4C94
:1023C000A06940F00800A061A069694600F008001B
:1023D0000490C02000901220019003200390084830
:1023E000FFF78CFDE06940F40010E061E06900F463
:1023F0000010049006B010BD0054004000100240D0
:10240000000C0140024881680278114481607047E5
:102410000C000020074810B5016841F01001016070
:10242000032000F06DF80F2000F006F800F024F80B
:10243000002010BD0020024070B50D4D04464FF441
:102440007A712878B1FBF0F00A490968B1FBF0F025
:1024500000F03AFB48B9102C07D200222146501E4A
:1024600000F02EF800206C6070BD012070BD0000EF
:102470000C00002018000020094808B5816941F0CF
:1024800001018161816901F001010091C16941F09F
:102490008051C161C06900F08050009008BD00000B
:1024A00000100240002809DB00F01F0201219140CA
:1024B0004009800000F1E020C0F8001170470000E2
:1024C000F0B40E4B1B680C46C3F30223C3F107059F
:1024D000042D00D90425191D072901D2002300E08D
:1024E000DB1E012606FA05F1491E214099409E4057
:1024F000761E16403143F0BC00F0B6BF0CED00E094
:10250000064900F0070208684FF6FF03184040EA4A
:102510000220034A10430860704700000CED00E001
:102520000000FA052DE9F84305460078354CC00750
:1025300054D0E0690026C00008D4E06940F0805023
:10254000E061E069012600F0805000902E480168AB
:10255000C90512D40168804641F480710160FFF71B
:10256000C3FD074605E000BFFFF7BEFDC01B6428A2
:1025700023D8D8F80000C005F6D5206A10F44070C2
:1025800021D0A98801F4407181421CD0206A1F49E2
:10259000012220F440700A6000220A602062C00715
:1025A00011D0FFF7A1FD074641F2883808E000BFCF
:1025B000FFF79AFDC11B414502D90320BDE8F8830E
:1025C000206A8007F4D5206A696820F440700843C7
:1025D00020621EB1E06920F08050E0612878800719
:1025E00005D56068A96820F44040084360602878F9
:1025F000C00605D56068E96820F480000843606083
:102600000020DBE70010024000700040400442421E
:102610002DE9F0470F46050061D0434E306800F0C9
:102620000700B84209D2306820F007003843306014
:10263000306800F00700B84251D128683B4C810750
:1026400012D5400703D5606840F4E06060602878E8
:10265000000703D5606840F4605060606068A96856
:1026600020F0F000084360602878C00728D0686830
:10267000012810D02168022810D0890700292EDAFD
:10268000616821F0030101436160FFF72DFD804681
:1026900041F288390DE021688903EFE78901EDE710
:1026A000FFF722FDA0EB0801494502D90320BDE850
:1026B000F0876068696800F00C00B0EB810FEFD123
:1026C000306800F00700B8420BD9306820F00700EE
:1026D00038433060306800F00700B84201D0012074
:1026E000E5E72878400705D56068E96820F4E060F0
:1026F000084360602878000706D56068296920F4DF
:10270000605040EAC100606000F028F86168084A43
:10271000C1F30311515CC8400649086006480068CF
:10272000FFF78AFE0020C2E70020024000100240AE
:10273000AE3A0008180000201000002004480549A7
:1027400000684968044AC1F30221515CC8407047DF
:102750001800002000100240BE3A00080E4A5168DE
:102760000E4801F00C03042B11D0082B0FD10C489C
:10277000C1F38343C903C05C0AD55168084AC1F359
:102780004041921E515C054A5043B0FBF1F0704746
:1027900004494843704700000010024000127A00CC
:1027A0009E3A000800093D002DE9F84F040070D062
:1027B0002078C04DC00749D06868C0F38100012867
:1027C00007D06868C0F38100022809D16868C00397
:1027D00006D52868800339D560680028E7D035E041
:1027E0006068B0F5803F0BD010B1B0F5A02F11D0CC
:1027F000286820F480302860286820F4802002E0D7
:10280000286840F480302860606890B1FFF76CFC65
:1028100006460AE0286840F480202860F0E700BF00
:10282000FFF762FC801B642873D828688003F7D503
:102830000CE0FFF759FC064605E000BFFFF754FC2B
:10284000801B6428F0D828688003F7D420789A4E3B
:1028500080074FF001094FF0000839D5686810F083
:102860000C0F07D06868C0F38100022809D168689E
:10287000C00306D42868800714D52069012808D130
:1028800010E02069B0B1C6F80090FFF72DFC0746B4
:1028900005E00AE1FFF728FCC01B0228C4D828681D
:1028A0008007F7D52868616920F0F80040EAC10088
:1028B00028600DE0C6F80080FFF716FC074604E02C
:1028C000FFF712FCC01B022823D828688007F7D422
:1028D000207800072CD57948A169D9B1C0F80090BB
:1028E000FFF702FC074604E0FFF7FEFBC01B0228CF
:1028F0000FD8686A8007F7D571484FF4FA5100681D
:10290000B0FBF1F0009000BF0098411E0091FAD298
:102910000EE080E0C0F80080FFF7E6FB074604E029
:10292000FFF7E2FBC01B022875D8686A8007F7D45E
:102930002078400760D5E8690027C00008D4E8691E
:1029400040F08050E861E869012700F08050009075
:102950005C480168C90513D40168834641F480715D
:102960000160FFF7C1FB824606E000BFFFF7BCFB3A
:10297000A0EB0A0064284ED8DBF80000C005F5D5AE
:10298000E06801280AD008B1052813D0286A20F091
:1029900001002862286A20F0040002E0286A40F062
:1029A00001002862E06841F2883B98B1FFF79CFB88
:1029B00082460BE0286A40F004002862EEE700BF80
:1029C000FFF792FBA0EB0A0159455AD8286A800705
:1029D000F6D50CE0FFF788FB824605E0FFF784FBA5
:1029E000A0EB0A0159454CD8286A8007F6D41FB1DC
:1029F000E86920F08050E861E06988B36968C1F354
:102A00008101022944D00228C6F8608004D0FFF773
:102A10006BFB044638E034E0FFF766FB074604E052
:102A2000FFF762FBC01B02282BD828688001F7D46F
:102A3000206AB0F5803F05D16868A16820F40030B5
:102A400008436860D4E908010843696821F47411F7
:102A500008436860C6F86090FFF746FB044606E04E
:102A600025E000BFFFF740FB001B022809D82868BB
:102A70008001F7D51BE000BFFFF736FB001B0228E3
:102A800002D90320BDE8F88F28688001F4D40EE055
:102A90000128F7D06868226A00F48031914204D19D
:102AA000616A00F47010884201D00120EAE700203A
:102AB000E8E7000000100240000042428004424269
:102AC000180000200070004010B5401EB0F1807F5B
:102AD00001D3012010BD4FF0E02460610F21601789
:102AE00000F0C2FC0020A06107202061002010BD82
:102AF00070B590F83C20012A26D0012480F83C4093
:102B0000022280F83D2003685A689D6822F0700612
:102B10000A6832435A600D4B02689A4208D0B2F1FB
:102B2000804F05D00A4B9A4202D00A4B9A4204D1F8
:102B3000496825F080031943916080F83D400021E9
:102B400080F83C10084670BD022070BD002C01408A
:102B5000000400400008004010B5040003D094F8C1
:102B60003D0010B107E0012010BD002084F83C00BA
:102B7000204600F01FF8022084F83D00211D206847
:102B800000F0F2FB012084F8460084F83E0084F84F
:102B90003F0084F8400084F8410084F8420084F843
:102BA000430084F8440084F8450084F83D00002088
:102BB00010BD000008B500680649884208D10648E3
:102BC000816941F400618161806900F400600090D6
:102BD00008BD0000002C01400010024090F83D109C
:102BE000012901D001207047022180F83D100068C2
:102BF0000B49884208D0B0F1804F05D0094988427E
:102C000002D00949884204D1816801F007010629F0
:102C100003D0016841F0010101600020704700000D
:102C2000002C0140000400400008004070B504463C
:102C300090F83C000025012817D0012684F83C605C
:102C4000022084F83D002068826822F0770222F496
:102C50007F4282600868502838D00DDC20284FD091
:102C600005DC90B3102811D14AE0022070BD302855
:102C700046D040280AD13BE060282FD070280DD0E4
:102C8000B0F5805F03D0B0F5005F12D0012584F865
:102C90003D60002084F83C00284670BDCB68D1E937
:102CA0000121206800F096FB2068816841F07701DF
:102CB00009E0CB68D1E90121206800F08BFB206896
:102CC000816841F480418160E1E719E0CA684968A0
:102CD000206800F091FB5021206806E0CA6849682E
:102CE000206800F09AFB6021206800F07DFBCEE7B1
:102CF000CA684968206800F07FFB40212068F4E73B
:102D0000226801461046F0E7FEE701684A69D243AF
:102D100052050FD46FF480624A61002140F8301FE1
:102D2000202242738173026942F00402026101733E
:102D30000120704700207047F8B50446C06A1E465F
:102D40000D461746082807D0012805D010F5803F0A
:102D500002D0206B122804D12068016841F48071F0
:102D60000160134600224FF001112046009600F04A
:102D70005DF840B120680068C00502D54FF40070CE
:102D800020640320F8BD2069B0F5804F0ED00620E6
:102D9000216800EAD51040F0F000086133463A4659
:102DA0000B49204600F08AF878B902E005F0FE00F1
:102DB00000E0E8B221680861054933463A46891FB8
:102DC000204600F07BF80028DCD00120F8BD000090
:102DD0000800010070B516460D4604461EE0204668
:102DE000FFF793FF08B1012070BD681C16D0FFF7F4
:102DF0007BF9801BA84200D885B920684069C04390
:102E000040070BD5002044F8300F20216173A073D8
:102E1000216941F0200121612073E4E720684069C5
:102E2000C0434007DBD4002070BD00002DE9F0470F
:102E3000984617460D460446C1F30746DDF8209034
:102E40002AE000BFB8F1FF3F26D0FFF74DF9A0EB15
:102E50000901414502D8B8F1000F1DD12068012EAB
:102E600016D0806925EA00000004000C12D0002072
:102E7000B84211D1002044F8300F20216173A073B3
:102E8000216941F02001216120730120BDE8F08714
:102E90004069E7E70120EBE72068012E0AD080694E
:102EA00025EA00000004000C06D00020B842C9D07A
:102EB0000020EBE74069F3E70120F7E72DE9F04751
:102EC000984616460D4604464FF000094FF0200A7A
:102ED000C1F3074723E020684069C043400515D48B
:102EE0002068016841F40071016021686FF480601E
:102EF0004861C4F8309084F83DA084F83E90216C7D
:102F000041F00401216484F83C9021E0701C06D05B
:102F1000FFF7EAF8A0EB0800B04203D816B1012F82
:102F20001FD021E02068012F15D0806925EA00001C
:102F30000004000C18D000BF44F8309F84F80DA0A6
:102F400084F80E90216941F02001216184F80C90F1
:102F50000120BDE8F087406925EA00000004000C6C
:102F6000EAD12068406901E02068806925EA000014
:102F70000004000CAFD1ECE770B516460D460446D0
:102F80001EE02046FFF7C1FE08B1012070BD681C9D
:102F900016D0FFF7A9F8801BA84200D885B9206891
:102FA0004069C04300060BD5002044F8300F2021B3
:102FB0006173A073216941F0200121612073E4E76E
:102FC00020684069C0430006DBD4002070BD10B506
:102FD000012000F07FF8BDE810400220FEF75ABF44
:102FE00010B5332000F076F83220FEF753FF322080
:102FF00000F070F83220FEF74DFF282000F06AF84C
:103000003220FEF747FF012000F064F83220FEF77F
:1030100041FF062000F05EF83220FEF73BFF0C2057
:1030200000F058F83220FEF735FF022000F052F889
:103030003220FEF72FFF802000F04CF8BDE8104052
:103040000220FEF727BF28B1012805D1C031C8B240
:1030500000F040B88031FAE7704700001CB500F07E
:10306000F00141F00D028DF8042041F009018DF8C6
:1030700005100D2141EA00118DF80610092141EAE1
:1030800000108DF8070064200090042301AA4E214F
:103090000148FFF7F3F81CBD4C0000201CB50246A8
:1030A00003A16846FDF7A0F8684600F033F81CBDA0
:1030B000256400001CB502460B4604A16846FDF7D6
:1030C00093F8684600F026F81CBD000025332E3129
:1030D000660000001CB500F0F00141F00C028DF814
:1030E000042041F008018DF805100C2141EA00117F
:1030F0008DF80610082141EA00108DF807006420C1
:103100000090042301AA4E210148FFF7B7F81CBD27
:103110004C00002070B50546002404E0285DFFF750
:103120009DFF641CE4B22846FDF75DF9A042F5D886
:1031300070BD00003EB50024114800940194029433
:103140000E498460016001250573047505614FF423
:1031500060214460C161FEF773FD08B172B6FEE7FD
:1031600007200094CDE9015069460548FEF766FC4A
:10317000002801D072B6FEE73EBD000000240140E9
:103180001C0000202DE9F04786B00024354800944B
:10319000019402940394816941F010018161816975
:1031A00001F010010491816941F020018161816980
:1031B00001F020010491816941F00401816181697C
:1031C00001F004010491816941F008018161806985
:1031D000DFF8948000F008004FF4005504900022BE
:1031E00029464046FEF77AFFDFF88090002203214F
:1031F0004846FEF773FFDFF878A06F1000223946CB
:103200005046FEF76BFF0095022601250396CDE997
:10321000015469464046FEF771FE0320CDE90005E2
:10322000CDE9024669464846FEF768FEE80300908D
:103230001048CDE9010569464846FEF75FFE009754
:103240000396CDE9015469465046FEF757FE002229
:1032500011462820FFF734F92820FFF723F906B09C
:10326000BDE8F0870010024000100140000C014052
:10327000000801400000211010B586B00024184855
:1032800000940194029403940494144905940160F9
:103290002321C0E901144FF6FF71C0E90314802116
:1032A000C0E90541FFF758FC08B172B6FEE74FF4DC
:1032B0008050009069460A48FFF7B8FC08B172B622
:1032C000FEE7049404A906480594FFF711FC0028C2
:1032D00001D072B6FEE706B010BD0000002C014020
:1032E000A0000020FEE7FEE770477047FFF78AB8AE
:1032F00030B593B028216846FDF794F814210AA848
:10330000FDF790F80025022401200F950490009409
:103310001020059012954FF4E010CDE9085011955A
:10332000109507946846FFF73FFA08B172B6FEE7BA
:103330000AA90F2081E831004FF48060CDE90D0526
:1033400001210AA8FFF764F908B172B6FEE70FA8D9
:1033500011950F94FFF7E6F8002801D072B6FEE74A
:1033600013B030BD70470000F0B50268164B174C23
:10337000174D4FF08047984205D0B84203D0A04285
:1033800001D0A84203D122F070064A683243984225
:1033900005D0B84203D0A04201D0A84203D122F404
:1033A0004074CA6822434C6922F0800222430260C2
:1033B0008A68C2620A688262984201D1096901631F
:1033C00001214161F0BD0000002C014000040040DB
:1033D0000008004010B5846842EA032224F47F44C8
:1033E0000A432243826010BD826822F070020A43C1
:1033F00042F007018160704710B5036A046A24F047
:1034000001040462846924F0F00444EA021423F005
:103410000A020A438461026210BD10B5036A046A9D
:1034200024F010040462846923F0A00324F470449F
:1034300044EA023243EA01118261016210BDFEE7F3
:10344000490050EAC12018BF04204A0D18BF40F0BF
:10345000010040F2FF72B2EB515F08BF40F0020082
:10346000012808BF052070470907090E002804DB62
:1034700000F1E02080F80014704700F00F0000F128
:10348000E02080F8141D704730380A2801D201204E
:103490007047002070470000FEF7BCFFFFF728FFD1
:1034A000FFF770FE274826494FF480420160264905
:1034B000416000218160C0E9031241618161C16105
:1034C0000162FEF717FE08B172B6FEE7FFF7D4FE01
:1034D000FFF730FE1B485430FFF780FBFFF780FDFD
:1034E00018483038FEF770FC184C40F6B83500210B
:1034F0000846FFF7A8FDFFF76AFD15A0FFF70AFED3
:103500006068A0F57A70FDF7DDFFFFF7C7FD12A038
:10351000FFF700FE00210120FFF795FD0FA0FFF748
:10352000F9FD208800F01EF8FFF7C4FDDF20FFF74B
:1035300095FD4320FFF792FD2846FEF7ABFCD6E74A
:10354000005400404C000020A08601000000002034
:1035500048756D643A0000002500000054656D70E8
:103560003A00000010B500F085F90022064B00F08B
:1035700095F94FF06632054B00F090F9BDE8104028
:10358000034A044B00F01EB80000594066660A402A
:103590009A9999999999D14010B500290AD008783B
:1035A000002807D005487844FDF714FB002801D017
:1035B000002010BD0248784410BD0000D605000070
:1035C000CE0500002DE9C04130B4DFF8A0C23CEACE
:1035D000111418BF3CEA131400F0EC8081EA0305D3
:1035E0001CEA111444EAD57418BF1CEA131500F044
:1035F000C780A4EB05044FF0004545EAC12145EA28
:10360000C32341EA505143EA525304F17F74994273
:1036100004F500344FEAC0204FEAC22208BF9042AE
:1036200000F09C804FEA13650FF24016765D4FEA7A
:10363000134506FB05F7C7F1807706FB07F74FEA4E
:10364000D737A7FB03687642C8F58038A7FB06CEBC
:1036500038BFA8F1010807FB08E64FF0000EA6FBF3
:10366000028CE6FB03CEDCF1000CCEF1004E38BF3D
:10367000AEF1010EA6FB0C584FF000074FF000050D
:10368000E6FB0E87A1FB08C6A0FB07CE16EB0E06D5
:1036900045F10005E1FB076515F1E04E7EBFA4F59D
:1036A00080345FEA46066D4116F1800745F100055A
:1036B0004FEA17274FEA066647EA0567A6F1DE4696
:1036C000B6F1805F4FEA15251FD9384624F0010C6A
:1036D00005EBC471BCF1FE6F01EB0C1102D8F0BC1C
:1036E000BDE8008124425CBF01F5801E9EEAC47FD4
:1036F00002D4F0BCBDE80081244238D4F0BCA1F172
:10370000C041BDE8004100F0C1B94FEAD22242EA0F
:1037100043524FEAD323A7FB02864FEAD02040EA68
:10372000415007FB03661EEA0E0F4FEAD12105FB4D
:10373000026658BFA6EB0056B6EB00564FEA520E93
:103740004EEAC37E18EB0E0E56EB530EBDD518EBAA
:1037500002085E417F1C55F10005B6E74FF4801565
:103760004FF000074FF000064FF00008ADE7F0BC47
:103770004FF0000001F1C04101F00041BDE80081BF
:1037800011EA0C1F0CEA131500D00CE013EA0C1F11
:1037900000F025804FF00000F0BC81EA030101F049
:1037A0000041BDE80081F0BCBDE8004181EA0301B1
:1037B00000F06CB9F0BCBDE8004170B500F018F93C
:1037C000097EFC3E00F007B881EA03014FF00000DB
:1037D00001F00041704781EA030100F057B9F0BCE5
:1037E000BDE800414FF0000021497047FFFDFBF9A3
:1037F000F7F5F4F2F0EEEDEBE9E8E6E4E3E1E0DE24
:10380000DDDBDAD8D7D5D4D3D1D0CFCDCCCBCAC895
:10381000C7C6C5C4C2C1C0BFBEBDBCBBBAB9B8B7BC
:10382000B6B5B4B3B2B1B0AFAEADACABAAA9A8A8AF
:10383000A7A6A5A4A3A3A2A1A09F9F9E9D9C9C9B7D
:103840009A99999897979695959493939291919028
:103850008F8F8E8E8D8C8C8B8B8A898988888787B9
:103860008685858484838382828181800000FF072E
:103870000000F87FB0FA80F310FA03F10AD0C3F128
:103880001D0303F580634FEA41504FEA035202EBF8
:10389000D12170474FF0000070470000DFF848C1A9
:1038A00070B51CEA111E1EBF1CEA13159EEA0C0F10
:1038B00095EA0C0F00F06F8081EA030423EA4C13B1
:1038C0004EEAD47E21EA4C1141F4801143F4801376
:1038D000AE44A1FB024CA0FB0365AEF17F7E36191E
:1038E00055EB0C05A1FB034C4CF10003A0FB021CA3
:1038F00016EB0C06654153F10003094218BF46F070
:10390000010613F4007F0BD14FEA03314FEA053073
:10391000340341EA155140EA16506FF003020AE001
:103920004FEAC3214FEAC520F40241EA555140EA6B
:1039300056506FF0020202EB2E4201EB025585EA6F
:10394000CE710AD05FEA440C18BF24F0004450F155
:10395000000041F1000120EAD47040F2FE7C624593
:1039600000D270BDA84214BF4FF080444FF04044D5
:10397000002E08BF0024BEF1806FA8BFA1F1C04196
:10398000BDE8704080F282804FF0000001F1C0413C
:1039900001F0004170479EEA0C0F0CEA131518BFA6
:1039A00095EA0C0F06D04FF0000081EA030E0EF0EE
:1039B000004170BD00F01CF88900013E00F007B81E
:1039C00000F009B84FEA430C5FEA5C5C08D081EA7A
:1039D000030100F05BB84FEA410C5FEA5C5CF6D192
:1039E0004FF00000014970470000FF070000F87F1A
:1039F0000EF1020E2EF0030E5EF8046B364205D473
:103A0000012A43EB030515F5001F12D8012841EBED
:103A1000010C1CF5001F0CD80ED14FEAD17C15F516
:103A2000001F0CEB4C0C0CF1020C08BF4CEBD37CD0
:103A300004E04FF0080C01E04FEAD37C0CEB4C059E
:103A400026FA05F606F00706B6F1040C06D20EEBD0
:103A5000860CBDE870404CF0010C6047DFE80CF0CC
:103A6000090B02024FF000414FF00000A1F50021C8
:103A700070BD19461046012851EB010418BFD4F55A
:103A8000001484BF002001F0004170BD0808A0F5BB
:103A900000114FEA31017047FCF71EBE010202031C
:103AA0000405060708090A0B0C0D0E0F1010000084
:103AB00000000000000001020304060708090000DE
:103AC000000001020304000002400000000000A00A
:103AD0000000000005400000000000C800000000D9
:103AE0000C4000000000409C000000001940000055
:103AF0000020BCBE0000000034400000BFC91B8E87
:103B000000000004B5400000504BCFD06607E2CF64
:103B1000010000006C4100003E8251AADFEEA73494
:103B200001000000D9420000DCB5A0E23A301F9746
:103B3000FFFFFFFFB4450000FD25A0C8E9A3C14F6A
:103B4000FFFFFFFFFF3F00000000008000000000BB
:103B5000FF3F00000000008000000000983B0008CC
:103B6000000000201C00000028010008B43B0008F1
:103B70001C0000202C070000440100081C0000006D
:103B800043000000F8FFFFFF0C0000000E000000E3
:103B90000F0000002E0000000000000000000000E8
:103BA0000000000001000000100000000000000004
:043BB0000024F400F9
:04000005080000ED02
:00000001FF
